:020000040000FA
:10000000000000308A002928FF0003088301FE0059
:100010000A088A01FD000408FC0083017C088400B2
:100020007D088A007E088300FF0E7F0E64000900B1
:10003000073083169F008312073083169C008312BB
:10004000AE30F0000130F1002C30F4007030F300DD
:1000500008001820831603138E182F288E1483127D
:1000600064003E208A0136208A013028F5000130E4
:100070008A00A230750703188A0A8200F00A031961
:10008000F10A71088A00700882002C30F400080020
:100090000B088039F5008B138313073053200B08AE
:1000A00075048B003028FF3E0318532008006400BD
:1000B000630057287408840020088000840A2108FF
:1000C0008000840A22088000840A23088000040A31
:1000D000F4000800740384000008A30084030008EF
:1000E000A20084030008A10084030008A000040803
:1000F000F4000800A001A101A201A30108007A20D8
:100100005A28893EF50000300318013E8A00750820
:100110008200013402340434083410342034403472
:1001200080349A20AD002D0E0F39053E84002D0835
:100130000739812800308A003F302C05A23E031881
:100140008A0A8200103411341234133414341534F2
:100150001634173420342134223423342434253403
:100160002634273400340134023403342434253453
:100170002634273430343134323433343434353463
:1001800036343734003401340234033444344534D3
:10019000463447341034043400340034003400341E
:1001A000003400342008BA002108BB00AD01390832
:1001B000B802031CB9033B08BA02031CBB03B0011D
:1001C000B101B201B301B117B90CB80C031CEE2890
:1001D0000030B20701300318013EB307B30CB20C74
:1001E000B10CB00C031CE4283108B8003208B90087
:1001F000B001B101B201B30191208417FF3A80052B
:10020000FF3A8413AE0064003808B0070318B10A3F
:100210003908B1073A08B2070318B30A3B08B30715
:100220003108A0004B21A01B003C803EA1003308F8
:10023000A0004B21A01B003C803EA107210CAD0774
:1002400000082E04031C2E0680004230B407FF3045
:10025000031CB507031CB607031CB70703180329C3
:100260002C30F4000800A301A2013E208A110A12DA
:10027000A1003E208A110A12A0000800A301A201D9
:10028000A1013E208A110A12A00008003E215A282E
:1002900033215A2820087F39201B803C563EF50028
:1002A00001300318013E8A007508820000340334CF
:1002B000063409340C3410341334163419341C3415
:1002C0001F342234253428342B342E343134333443
:1002D000363439343C343F3441344434473449347F
:1002E0004C344E3451345334553458345A345C34CD
:1002F0005E34603462346434663468346A346B3437
:100300006D346F34703471347334743475347634BE
:10031000783479347A347A347B347C347D347D3467
:100320007E347E347E347F347F347F347F344A2180
:10033000A01B003CA0000301A01BFF30A100A200F5
:10034000A300080047285A286A2857285728462912
:100350003E29482933297F287A289729D22805342D
:100360000934093407340334E83407343E34803424
:060370000A340C340434D1
:02400E000000B0
:00000001FF
